:060000000A128A110C280F
:10000800FE00030EF1000A08F2000A128A112028E5
:100018000A128A110F280A128A1152210A128A1109
:10002800F6000A128A1153210A128A11F700F80100
:1000380083010A128A117B28831203130C1C2528BA
:10004800262829280130F6020C100B1C2C282D28F4
:100058007428861A302831283B28F701F70A8501C9
:100068008801061086100330F0007008F600061BA1
:100078003E283F285728770803194328442857283B
:10008800780803194828492857280508031D4D28CA
:100098004E2853280130F0007008850757280508B6
:1000A800F00070078500861B5A285B28732877089C
:1000B80003195F28602873287808031964286528BD
:1000C80073280808031D69286A286F280130F00082
:1000D8007008880773280808F000700788000B105C
:1000E80072088A00710E8300FE0E7E0E09000A1245
:1000F8008A1114210A128A110A128A1140210A123D
:100108008A110A128A1135210A128A110A128A11D1
:1001180047210A128A110A128A114D210A128A11DC
:100128000A128A1128210A128A1183120313851FC1
:100138009E289F28A1280614F701881FA428A5280F
:10014800A7288614F701043076020318AC28AD28D6
:10015800B42876080319B128B228B428F801B628BB
:10016800F801F80A76080A128A11C9200A128A11B7
:1001780076080A128A11F1200A128A1183120313CF
:10018800870099280A128A110C28F500DD288312A5
:1001980003130914F028831203138914F028831217
:1001A80003130915F0288312031309108910091184
:1001B800F0287508F300F4017408003A0319E528DB
:1001C800D7287308013A0319D328033A0319CF280B
:1001D800013A0319CB28D7280800F500FD283F303D
:1001E8001329063013295B3013294F3013290030A7
:1001F80013297508F300F4017408003A0319052956
:10020800FB287308003A0319F328013A0319F52863
:10021800033A0319F728013A0319F928FB280800BB
:100228008316031788018901831603138501E030BB
:1002380086008701880189018312031385018601DD
:100248008701880189010800831203139016101290
:1002580090111015901010140B308F00DC308E00A8
:1002680008008B170B178B150B10831603130C1430
:10027800831203130C100800831603130F178F1231
:100288000F120F140800831603138113E030950032
:100298000800E03083160313960008000334013485
:04400E00D420FF3F7C
:00000001FF
